:100000000C9463000C94F60E0C94F60E0C94F60E01
:100010000C94F60E0C94F60E0C94F60E0C94F60E50
:100020000C94F60E0C94F60E0C94F60E0C94F60E40
:100030000C94F60E0C94F60E0C94F60E0C94F60E30
:100040000C94F60E0C94F60E0C94F60E0C94F60E20
:100050000C94F60E0C94F60E0C94F60E0C94F60E10
:100060000C94F60E0C94F60E0C94F60E0C94F60E00
:100070000C94F60E0C94F60E0C94F60E0C94F60EF0
:100080000C94F60E0C94F60E0C94F60E0C94F60EE0
:100090000C94F60E0C94F60E0C94F60E0C94F60ED0
:1000A0000C94F60E0C94F60E400044A48044A44434
:1000B000E8001DFA44E844EC8044EC44F6001E3E9F
:1000C00044F6450C8000809101108F7C8060806830
:1000D0008093011011241FBECFEFCDBFDFE7DEBF3D
:1000E000E8EAF0E040E019C0B791A7913791279175
:1000F000079107FD0EC097918791EF01F92FE82F27
:100100000BBF07900D92A217B307D9F7FE011BBED4
:1001100004C01D92A217B307E1F7E53CF40721F7ED
:0C0120000E94AD090C94CB0EF894FFCFA8
:10012C00414C4552543A204D69737365642078787C
:10013C0000547970655B78785D2068683A6D6D4124
:10014C004D0064656275673A202020202020202015
:10015C002000545545204150522044442048483AF0
:10016C004D4D0041494432474F20204D4D4D2059B3
:10017C005959590044444420646420202068683A4A
:10018C006D6D21210054696D65205365743A204EC4
:10019C004F4E452020002020202000534554205253
:1001AC0043433A204E4F4E45202020002020202053
:0D01BC0020202020202020202020202000B6
:1001C9002020202020202020202020202020202026
:0101D9000025
:1001DA002F923F924F925F926F927F928F929F924D
:1001EA00AF92BF92CF92DF92EF92FF920F931F933B
:1001FA00CF93DF93CDB7DEB7A297CDBFDEBF6C0139
:10020A008FEFC816D80609F0C9C00E94B00E8C013B
:10021A0081E1ECE2F1E8DE01529601900D928A95B5
:10022A00E1F781E1EDE3F1E8DE01119601900D922B
:10023A008A95E1F760E070E0C8010E94B00B88A3DC
:10024A0061E070E0C8010E94B00B89A300E010E0F1
:10025A000F2EFBE56F2EF02D0F2EFDE57F2EF02DD4
:10026A006894AA24A5F80F2EFAE34F2EF02D0F2E2C
:10027A00F1E45F2EF02D0F2EFDE4BF2EF02D0F2E90
:10028A00F4E42F2EF02D0F2EF2E53F2EF02DB801BB
:10029A0085E090E00E940E0C019709F068C0B80151
:1002AA0083E090E00E940E0C009731F459828CE4AE
:1002BA008A833B82BC8212C08130910539F4B982AB
:1002CA0085E48A832B8283E58C8308C0029731F404
:1002DA00298283E48A8384E58B833C826D8260E091
:1002EA0070E0C8010E94B00B8E8361E070E0C80123
:1002FA000E94B00B8F837886A986B80181E090E0CE
:10030A000E940E0C7C01892B09F42DC48DE0E8169D
:10031A00F1042CF047018CE0881A910801C04701CA
:10032A0060E070E0C4010E94B00B8A8761E070E06F
:10033A00C4010E94B00B8B874C86B80182E090E022
:10034A000E940E0C4C0160E070E00E94B00B8D8799
:10035A0061E070E0C4010E94B00B8E878CE0E81661
:10036A00F10414F45F8602C080E58F87B88A0F5FB4
:10037A001F4F0336110509F08ACF61E081E00E9420
:10038A00060ECE0142960E944E0E61E082E00E9465
:10039A00060ECE0101960E944E0EF1C1C114D1047F
:1003AA0009F0A3C061E081E00E94060E80E1EEE45C
:1003BA00F1E8DE01529601900D928A95E1F70E94CA
:1003CA00B00E60E070E00E94B00B898F0E94B00E00
:1003DA0061E070E00E94B00B8A8F83E70E94B40A42
:1003EA0060E070E00E94B00B88A383E70E94B40A21
:1003FA0061E070E00E94B00B89A3CE0142960E9490
:10040A004E0E61E082E00E94060E81E1EEE5F1E81F
:10041A00DE01119601900D928A95E1F789E50E9415
:10042A00B40A60E070E00E94B00B898389E50E94FB
:10043A00B40A61E070E00E94B00B8A8389E50E94E9
:10044A00B40A62E070E00E94B00B8B8389E50E94D7
:10045A00B40A63E070E00E94B00B8C838DE28D8356
:10046A008DE40E94B40A60E070E00E94B00B8E83B3
:10047A008DE40E94B40A61E070E00E94B00B8F83A1
:10048A0084E60E94B40A60E070E00E94B00B89879B
:10049A0084E60E94B40A61E070E00E94B00B8A8789
:1004AA0083E60E94B40A60E070E00E94B00B8C8779
:1004BA0083E60E94B40A61E070E00E94B00B8D8767
:1004CA008DE60E94B40A60E070E00E94B00B8F874C
:1004DA008DE60E94B40A61E070E00E94B00B888B3E
:1004EA00CE0101960E944E0E09C281E0C816D104BF
:1004FA0009F045C181E1EFE6F1E8DE01529601908B
:10050A000D928A95E1F78DE40E94B40A8C0189E57F
:10051A000E94B40A7C010130110539F48AE48A8FF9
:10052A0081E48B8F8EE48C8F14C00230110539F46C
:10053A0086E48A8F85E48B8F82E48C8F14C0033023
:10054A00110539F48DE48A8F81E48B8F82E58C8FD3
:10055A0014C00430110539F481E48A8F80E58B8F49
:10056A0082E58C8F14C00530110539F48DE48A8F29
:10057A0081E48B8F89E58C8F14C00630110539F41C
:10058A008AE48A8F85E58B8F8EE48C8F14C00730BE
:10059A00110539F48AE48A8F85E58B8F8CE48C8F78
:1005AA0014C00830110539F481E48A8F85E58B8FF0
:1005BA0087E48C8F14C00930110539F483E58A8FDA
:1005CA0085E48B8F80E58C8F14C00A30110539F4CD
:1005DA008FE48A8F83E48B8F84E58C8F13C00B3072
:1005EA00110539F48EE48A8F8FE48B8F86E58C8F20
:1005FA0009C00C30110531F484E48A8F85E48B8FAD
:10060A0083E48C8F60E070E0C7010E94B00B8E8F8C
:10061A0061E070E0C7010E94B00B8F8F62E070E06A
:10062A00C7010E94B00B88A363E070E0C7010E9473
:10063A00B00B89A361E081E00E94060ECE014296CA
:10064A000E944E0E81E1E0E8F1E8DE011196019088
:10065A000D928A95E1F787E50E94B40A009739F46A
:10066A0023E5298325E52A832EE42B8314C08130D0
:10067A00910539F42DE429832FE42A832EE42B8370
:10068A0014C08230910539F424E5298325E52A83AB
:10069A0025E42B8314C08330910539F427E5298397
:1006AA0025E42A8324E42B8314C08430910539F489
:1006BA0084E5898388E48A8385E58B8312C0853043
:1006CA00910539F486E4898382E58A8389E48B83F8
:1006DA0008C0069731F483E5898381E48A8384E537
:1006EA008B8384E60E94B40A8C0180E28C8360E0EA
:1006FA0070E0C8010E94B00B8D8361E070E0C80110
:10070A000E94B00B8E8383E60E94B40A7C018DE6B8
:10071A000E94B40A8C0181E20E94B40A6C0160E072
:10072A0070E0C7010E94B00B8A8761E070E0C701E0
:10073A000E94B00B8B878AE38C8760E070E0C80167
:10074A000E94B00B8D8761E070E0C8010E94B00B77
:10075A008E87C114D10419F481E48F8705C0CA9425
:10076A00CD2811F480E58F878DE4888B61E082E0E3
:10077A000E94060ECE0101960E944E0E16C282E01B
:10078A00C816D10409F0BAC061E081E00E94060EE1
:10079A0081E1E1E9F1E8DE01119601900D928A9575
:1007AA00E1F785E0E2EAF1E8DE01529601900D9266
:1007BA008A95E1F70E94E80E8C018130910529F5AE
:1007CA0089E58B878C878D878E870E94B40A60E0C3
:1007DA0070E00E94B00B8A8B89E50E94B40A61E03E
:1007EA0070E00E94B00B8B8B89E50E94B40A62E02C
:1007FA0070E00E94B00B8C8B89E50E94B40A63E01A
:10080A0070E00E94B00B8D8B37C082309105D1F415
:10081A008DE48B878C876894FF24F5F8FD86FE8625
:10082A000E94B40A60E070E00E94B00B8A8B8DE4EB
:10083A000E94B40A61E070E00E94B00B8B8BFC8AC4
:10084A00FD8A35C00397C1F484E68B878C8710E252
:10085A001D871E870E94B40A60E070E00E94B00BF8
:10086A008A8B84E60E94B40A61E070E00E94B00BB1
:10087A008B8B1C8B1D8B35C004301105C1F488E6A7
:10088A008B878C8710E21D871E870E94B40A60E05E
:10089A0070E00E94B00B8A8B88E60E94B40A61E07D
:1008AA0070E00E94B00B8B8B1C8B1D8B1AC005301D
:1008BA001105B9F48DE68B878C8710E21D871E8798
:1008CA000E94B40A60E070E00E94B00B8A8B8DE649
:1008DA000E94B40A61E070E00E94B00B8B8B1C8B03
:1008EA001D8BCE0101960E944E0E61E082E00E94AD
:1008FA00060ECE0142960E944E0E57C183E0C816DC
:10090A00D10409F052C181E1E7EAF1E8DE01529629
:10091A0001900D928A95E1F781E1E8EBF1E8DE01B9
:10092A00119601900D928A95E1F70E94E80E8C01CA
:10093A000E94ED0E7C01009741F48EE48B8F9FE4B8
:10094A009C8F8D8F85E48E8F0EC060E070E00E94D0
:10095A00B00B8B8F61E070E0C7010E94B00B8C8FE7
:10096A0080E28D8F8E8F0115110509F470C081E226
:10097A0089A30130110509F04FC084E48E8F81E408
:10098A008F8F89E588A3B70180E090E00E940E0C62
:10099A00009739F423E5298325E52A832EE42B835E
:1009AA0014C08130910539F42DE429832FE42A8378
:1009BA002EE42B8314C08230910539F424E529836F
:1009CA0025E52A8325E42B8314C08330910539F465
:1009DA0027E5298325E42A8324E42B8314C0843061
:1009EA00910539F484E5898388E48A8385E58B83D4
:1009FA0049C08530910539F486E4898382E58A8382
:100A0A0089E48B8324C00697E9F583E5898381E429
:100A1A008A8384E58B8336C002301105C1F488E4E9
:100A2A008E8F82E58F8F80E288A3B70181E090E004
:100A3A000E940E0C6C0160E070E00E94B00B89838A
:100A4A0061E070E0C6010E94B00B8A8355C0033092
:100A5A001105C1F48DE48E8F89E48F8F8EE488A30B
:100A6A00B70182E090E00E940E0C8C0160E070E019
:100A7A000E94B00B898361E070E0C8010E94B00B4C
:100A8A008A8360C004301105B9F584E58E8F89E543
:100A9A008F8F80E588A3B70183E090E00E940E0C57
:100AAA00009751F481E489839CE49A838B8382E5DD
:100ABA008C838DE48D8346C08130910579F48DE471
:100ACA00898385E48A8394E49B8399E49C8323E461
:100ADA002D839E839EE49F83888734C0029791F575
:100AEA0084E489838FE48A8393E49B8394E59C83DB
:100AFA008D8382E58E8326C00530110519F585E4BC
:100B0A008E8F8EE48F8F80E288A3B70184E090E015
:100B1A000E940E0C8130910551F48FE489838EE492
:100B2A008A8380E28B838C838D838E830BC0892B8F
:100B3A0049F48FE4898386E48A838B8380E28C83F9
:100B4A008D838E8361E081E00E94060ECE0142967B
:100B5A000E944E0E61E082E00E94060ECE010196CE
:100B6A000E944E0E22C060E070E08CE090E00E948D
:100B7A00B00B8A8761E070E08CE090E00E94B00BD5
:100B8A008B874C86B80182E090E00E940E0C7C01B3
:100B9A0060E070E00E94B00B8D8761E070E0C701F1
:100BAA000E94B00B8E875F86E1CBA296CDBFDEBFD7
:100BBA00DF91CF911F910F91FF90EF90DF90CF902F
:100BCA00BF90AF909F908F907F906F905F904F9063
:060BDA003F902F900895EA
:100BE000CF93DF938F3F2FEF920759F42091F0447A
:100BF0003091F1442F5F3F4F2093F0443093F14404
:100C000015C0009759F42091FA443091FB442F5FAE
:100C10003F4F2093FA443093FB4410C0813091053C
:100C200029F46093FA447093FB4410C0823091051C
:100C300029F46093F8447093F94410C0833091050F
:100C400029F46093F6447093F74410C08430910502
:100C500029F46093F4447093F5440EC085309105F7
:100C600029F46093F2447093F34406C0069721F48C
:100C70006093F0447093F1448091FA449091FB4466
:100C8000CC970CF41EC11092FA441092FB44809150
:100C9000F8449091F94401968093F8449093F94474
:100CA00099230CF003C18BE390E08093F844909378
:100CB000F9440DC01092F8441092F9448091F64422
:100CC0009091F74401968093F6449093F744809175
:100CD000F6449091F7448831910574F01092F644EF
:100CE0001092F7448091F4449091F54401968093DA
:100CF000F4449093F54408C0992334F487E190E0DC
:100D00008093F6449093F7448091F4449091F54495
:100D1000EC0121971816190634F081E090E08093D9
:100D2000F4449093F544CD31D105E9F48091F04439
:100D30009091F1440E94EB0D892B09F460C08091E1
:100D4000F2449091F344029709F059C081E090E099
:100D50008093F4449093F54483E090E08093F244D0
:100D60009093F3444CC0CC31D105E9F48091F04428
:100D70009091F1440E94EB0D892B09F072C0809193
:100D8000F2449091F344029709F06BC081E090E047
:100D90008093F4449093F54483E090E08093F24490
:100DA0009093F3445EC0CE31D10549F58091F24471
:100DB0009091F3449C01215031092330310508F40E
:100DC00087C08530910509F483C02650310922304F
:100DD000310508F47DC08A30910509F479C08C3062
:100DE000910509F475C021E030E02093F44430937C
:100DF000F54401968093F2449093F34432C06F9788
:100E000081F58091F2449091F3449C012B7F223034
:100E1000310509F45DC08430910509F459C0893069
:100E2000910509F455C00C9769F41092F2441092A0
:100E3000F3448091F0449091F14401968093F04402
:100E40009093F14481E090E08093F4449093F544D2
:100E50008091F2449091F34401968093F2449093F0
:100E6000F3448091F2449091F3448D3091053CF02D
:100E700081E090E08093F2449093F34409C0181607
:100E8000190634F08CE090E08093F2449093F344A0
:100E90008091F0449091F144803D9740CCF480EDF6
:100EA00097E08093F0449093F14412C0CC970CF0FB
:100EB00001CF0DCF8BE390E08093F8449093F944F9
:100EC00006CF8091F8449091F94499237CF7F2CFB2
:060ED000DF91CF910895AF
:100ED600CF93C82F8D36A1F580910845909109458D
:100EE6000196809308459093094589E50E94B40AC6
:100EF60080930645909307458DE40E94B40A80933B
:100F060004459093054584E60E94B40A8093024501
:100F16009093034588E60E94B40A80930045909317
:100F260001458DE60E94B40A8093FE449093FF44E7
:100F36008091084590910945019709F0E3C040C0AA
:100F460089E50E94B40A80930645909307458DE48F
:100F56000E94B40A809304459093054584E60E9456
:100F6600B40A809302459093034588E60E94B40A2A
:100F760080930045909301458DE60E94B40A8093C4
:100F8600FE449093FF44809108459091094501974E
:100F9600F1F4C23751F480910645909107450196C8
:100FA60080930645909307450BC0CC3649F4809153
:100FB600064590910745019780930645909307450E
:100FC600609106457091074589E50E94910C8091D4
:100FD6000845909109450297F1F4C23751F4809182
:100FE60004459091054501968093044590930545E7
:100FF6000BC0CC3649F48091044590910545019784
:10100600809304459093054560910445709105458C
:101016008DE40E94910C80910845909109450397B3
:10102600F1F4C23751F4809102459091034501963F
:1010360080930245909303450BC0CC3649F48091CA
:10104600024590910345019780930245909303458D
:10105600609102457091034584E60E94910C80914F
:101066000845909109450497F1F4C23751F48091EF
:101076000045909101450196809300459093014566
:101086000BC0CC3649F480910045909101450197FB
:10109600809300459093014560910045709101450C
:1010A60088E60E94910C8091084590910945059724
:1010B600F1F4C23751F48091FE449091FF440196B9
:1010C6008093FE449093FF440BC0CC3649F4809144
:1010D600FE449091FF4401978093FE449093FF4411
:1010E6006091FE447091FF448DE60E94910C8091C0
:1010F600084590910945069769F4109208451092A3
:10110600094508C08091084590910945029709F064
:0811160082CF7ACFCF9108953A
:10111E00CF93C82F8D3689F48091FC449091FD4475
:10112E00892B09F4F7C080910845909109450196E5
:10113E008093084590930945EDC0809108459091A4
:10114E000945009729F5C23771F48091FC449091BE
:10115E00FD440196843691050CF4E3C01092FC44D4
:10116E001092FD44F1C0CC3609F0EEC08091FC44E3
:10117E009091FD4401972AF08093FC449093FD4496
:10118E00E3C083E690E08093FC449093FD44DCC082
:10119E008130910519F56091FC447091FD4480E019
:1011AE0090E00E940E0CC23711F4019603C0CC36AB
:1011BE0009F40197873091052CF499232CF486E0DD
:1011CE0090E002C080E090E06091FC447091FD449C
:1011DE00AC0180E090E00E94510CB6C082309105C7
:1011EE0019F56091FC447091FD4481E090E00E94FD
:1011FE000E0CC23711F4019603C0CC3609F40197D8
:10120E00883191052CF499232CF487E190E002C0EB
:10121E0080E090E06091FC447091FD44AC0181E06F
:10122E0090E00E94510C90C08330910519F56091A9
:10123E00FC447091FD4482E090E00E940E0CC23797
:10124E0011F4019603C0CC3609F401978C33910545
:10125E002CF499232CF48BE390E002C080E090E014
:10126E006091FC447091FD44AC0182E090E00E94DC
:10127E00510C6AC08430910519F56091FC4470914F
:10128E00FD4483E090E00E940E0CC23711F40196EB
:10129E0003C0CC3609F40197833091052CF49923C1
:1012AE002CF482E090E002C080E090E06091FC447B
:1012BE007091FD44AC0183E090E00E94510C44C05B
:1012CE00059719F56091FC447091FD4484E090E01F
:1012DE000E940E0CC23711F4019603C0CC3609F4ED
:1012EE000197823091052CF499232CF481E090E043
:1012FE0002C080E090E06091FC447091FD44AC012E
:10130E0084E090E00E94510C1FC01092084510928C
:10131E0009451AC080910845909109450097A1F0A2
:10132E000EC08093FC449093FD440EC06091FC442B
:10133E007091FD4480E090E00E940E0C3BCF813016
:0C134E00910509F04BCFF2CFCF9108952C
:10135A000E94AD0D2FEF84E39CE021508040904025
:10136A00E1F700C0000080E88FBFE0E0F4E083E727
:10137A00828382E0808B818B848B858B868B88ED40
:10138A0084BF8CE180936800E0E6F0E0858180FD0F
:10139A00FDCF81E48093A00685E88093B200E0E067
:1013AA00FAE089E080838FEF9FEF86A397A300E09E
:1013BA0014E0992493946894882485F80F2EF0E514
:1013CA004F2EF3EC5F2E612C712CF02DC0E0DAE089
:1013DA000F2EF0EAAF2EF6E0BF2EF02D6894DD2432
:1013EA00D1F86894EE24E6F86894FF24F4F8F8013A
:1013FA00818580FF0FC060E070E080E090E00E948D
:10140A00F00583E70E94B40A892B11F40E94500B5D
:10141A00F8019186F801818581FF04C00E94220D9E
:10142A00F801D186F801818586FF05C08CE60E9405
:10143A00CC0DF801E186F801818585FF05C08DE6AE
:10144A000E94CC0DF8018186F801818584FF05C0D0
:10145A0082E70E94CC0DF801F1860E94B00E1816A0
:10146A00190624F48FEF9FEF0E94DE0E8FE097E2B9
:10147A000197F1F700C000000E94E30E0E94ED0000
:10148A000E94E30E019609F0B2CF1092EC4410923A
:10149A00ED4480E090E0880F991FFC01E453FB4B78
:1014AA0020813181032E000C440B550BC301B2017C
:1014BA000E94370E69017A011092EA441092EB44B5
:1014CA0088A199A1C816D906D8F718A219A280919D
:1014DA00E8449091E944FC01EE0FFF1FEC55FB4BE9
:1014EA002081F501238301966091EE447091EF44C7
:1014FA000E94640E8093E8449093E944F801818540
:10150A0080FF08C060E070E080E090E00E94F00593
:10151A00F8019186F801818585FF06C08DE60E9453
:10152A00CC0DF80181860DC08091EA449091EB447C
:10153A0001968093EA449093EB44883893410CF4E3
:10154A00BFCF8091EC449091ED4401968093EC4496
:0E155A009093ED448E3091050CF49DCF3FCF61
:101568000F931F93CF93DF93833729F48091FA4425
:101578009091FB448CC08D3629F48091F844909169
:10158800F94485C0883629F48091F6449091F7444F
:101598007EC0843629F48091F4449091F54477C054
:1015A8008D3429F48091F2449091F34470C08935C8
:1015B80029F48091F0449091F14469C0873509F08D
:1015C80046C0E091F444F091F5444091F2445091C2
:1015D800F344C091F044D091F144433051051CF4D8
:1015E8008E01219703C08E010250110937E1349F03
:1015F800C001359F900D112469E070E00E94780EBB
:10160800E00FF11F9B012E0F3F1FB9016C5F7F4F49
:101618009E01DD2314F42D5F3F4F359527953595B1
:101628002795260F371FCE0164E670E00E94780EDA
:10163800261B370BCE0160E971E00E94780EC901C4
:10164800860F971F67E070E00E94780E20C08336EF
:1016580059F48091F6449091F744009799F08D30B1
:101668009105ACF00C9713C0813279F431E020E099
:101678008091F6449091F7440C970CF430E0832F56
:10168800922F05C08CE090E002C080E090E0DF91EE
:08169800CF911F910F910895FD
:1016A0008F929F92AF92BF92CF92DF92EF92FF9272
:1016B0000F931F93CF93DF9387E50E94B40A8C01A9
:1016C00088E60E94B40A7C018DE60E94B40AE6EC2A
:1016D000F0E4AEEDB3E40F2EF8E18F2EF3E49F2E8D
:1016E000F02D22E532E440E050E40F2EFCE8CF2E4E
:1016F000F1E4DF2EF02DAA24A394B12C6191719115
:1017000061307105A9F46D917C9111970617170747
:1017100079F4E40168817981E616F70649F4E90174
:10172000688179818617970719F4EA01A882B9823E
:101730001296D2E08D0E911C2E5F3F4F4E5F5F4F91
:10174000EC15FD05D9F6DF91CF911F910F91FF9018
:10175000EF90DF90CF90BF90AF909F908F900895C3
:10176000803127E292070CF053C084369105BCF11A
:101770006115710561F468EE73E00E94780ECB018B
:101780006AE070E00E94780E0E94C60C08956130F5
:10179000710561F464E670E00E94780ECB016AE0A6
:1017A00070E00E94780E0E94C60C089562307105A8
:1017B00061F42AE030E0B9010E94780ECB01B90152
:1017C0000E94780E0E94C60C08956330710511F5D1
:1017D0006AE070E00E94780E0E94C60C08956115C0
:1017E000710561F42AE030E0B9010E94780ECB0166
:1017F000B9010E94780E0E94C60C089561307105EF
:1018000059F46AE070E00E94780E0E94C60C0895B8
:0C18100085E608958EE6089580E00895B6
:10181C00009741F4660F771FFB01E252FC4B80816D
:10182C00918108958130910541F4660F771FFB017A
:10183C00E85EFC4B8081918108958230910541F4E2
:10184C00660F771FFB01EE5AFD4B80819181089545
:10185C008330910541F4660F771FFB01E457FE4B73
:10186C008081918108958430910541F4660F771F32
:10187C00FB01EA53FF4B808191810895059741F458
:10188C00660F771FFB01E050F04C80819181089529
:06189C008FEF9FEF08959D
:1018A200009741F4FB01EE0FFF1FE252FC4B408315
:1018B200518316C08130910541F4FB01EE0FFF1FE9
:1018C200E85EFC4B4083518316C08230910541F49F
:1018D200FB01EE0FFF1FEE5AFD4B4083518316C0F2
:1018E2008330910541F4660F771FFB01E457FE4BED
:1018F2004083518308958430910541F4660F771F28
:10190200FB01EA53FF4B408351830895059739F455
:10191200660F771FFB01E050F04C4083518308951E
:101922000F931F93CF93C82F8B01833729F481E044
:1019320090E00E94F0050EC08D3629F482E090E01E
:101942000E94F0050FC0883629F483E090E00E94DF
:10195200F00510C0C43631F4B80184E090E00E9472
:10196200F0050FC0CD3431F4B80185E090E00E945B
:10197200F00507C0C93529F4B80186E090E00E945D
:0A198200F005CF911F910F91089519
:10198C000097E1F081309105D9F082309105D1F0CA
:10199C0083309105C9F084309105C1F085309105F3
:1019AC00B9F086309105B1F087309105A9F08830F7
:1019BC009105A1F00997A1F086E6089580E30895BA
:1019CC0081E3089582E3089583E3089584E3089501
:1019DC0085E3089586E3089587E3089588E30895E1
:0419EC0089E30895EE
:1019F0000F931F93CF93DF938D36F9F4C0E0D0E0BF
:101A000000E010E0BE0185E090E00E940E0C01971E
:101A100011F40C2F1D2F2196C336D10599F740E004
:101A200050E0602F712F85E090E00E94510C0E94E1
:101A3000B00E892B11F40E94220DDF91CF911F91DE
:041A40000F91089565
:101A440010920845109209451092FC441092FD44EE
:101A54000E949F0E80910A4590910B4501968093B8
:101A64000A4590930B45009739F481E090E0809308
:101A74000A4590930B450895049734F081E090E073
:0A1A840080930A4590930B450895E6
:101A8E00CF93DF93C82FD82FD07F8D2F8C600E94DD
:101A9E00C00E8D2F88600E94C00E80E1C89FE001AD
:101AAE0011248C2F8C600E94C00E8C2F88600E9497
:101ABE00C00E8FEC97E00197F1F700C00000DF91A8
:041ACE00CF91089517
:101AD200CF93DF93C82FD82FD07F8D2F8D600E9498
:101AE200C00E8D2F89600E94C00E80E1C89FE00168
:101AF20011248C2F8D600E94C00E8C2F89600E9451
:101B0200C00E8FEC97E00197F1F700C00000DF9163
:041B1200CF910895D2
:101B1600A1E21A2EAA1BBB1BFD010DC0AA1FBB1FEB
:101B2600EE1FFF1FA217B307E407F50720F0A21B5D
:101B3600B30BE40BF50B661F771F881F991F1A94CA
:101B460069F760957095809590959B01AC01BD01F4
:041B5600CF0108951E
:101B5A008FE39CE90197F1F700C000000E948C0E08
:101B6A0087E20E941F0E882389F080E20E94470DB7
:101B7A0088E20E94470D8CE00E94470D86E00E9491
:0E1B8A00470D81E00E94470D0E94F20E089563
:101B9800CF93C82F80910A4590910B45019619F46F
:101BA8008C2F0E94F80C80910A4590910B45029762
:101BB80019F48C2F0E946B0780910A4590910B4570
:0E1BC800039719F48C2F0E948F08CF91089577
:101BD6009C0160E971E00E94780E892B89F0C901A9
:101BE60064E670E00E94780E009761F02370332758
:101BF60051E040E0232B09F050E0852F942F089503
:061C060081E090E008956A
:101C0C00CF93DF93C82FD62F87E20E941F0E882315
:101C1C0069F0C23029F48FEB8D0F0E94470D04C080
:101C2C008FE78D0F0E94470D0E94F20EDF91CF912E
:021C3C00089509
:101C3E00880F80930709E0E0F9E0858181FFFDCFF1
:101C4E00E0E0F9E0858186FFFDCF8091050984FFF4
:101C5E0005C083E08093040980E0089581E0089533
:101C6E00052E97FB1EF400940E94D60E57FD07D04A
:101C7E000E948B0D07FC03D04EF40C94D60E50959B
:0E1C8E004095309521953F4F4F4F5F4F089581
:101C9C00CF93DF93EC0187E20E941F0E882359F04B
:101CAC008881882331F021960E94690D89918111D8
:0C1CBC00FBCF0E94F20EDF91CF91089543
:101CC800AA1BBB1B51E107C0AA1FBB1FA617B7075A
:101CD80010F0A61BB70B881F991F5A95A9F7809576
:081CE8009095BC01CD010895A7
:101CF00097FB072E16F4009407D077FD09D00E94B9
:101D0000640E07FC05D03EF4909581959F4F089591
:081D1000709561957F4F089565
:101D1800E0E0F9E080818061808380818460808355
:101D280081E085838581806685838EE086838381D3
:061D380081608383089521
:101D3E0061E081E00E94060E89EC91E80E944E0E51
:101D4E0061E082E00E94060E89EC91E80E944E0E40
:021D5E000895E6
:101D6000E0E0F0E446EC50E480E090E02191319135
:101D70002130310509F40196E417F507B9F7089504
:101D800080930809E0E0F9E0858186FFFDCF858139
:061D900084FDFACF089566
:101D9600EC010E94FB0E0E94FA0ECE010E94FC0E80
:061DA600CE010E94F80EC0
:101DAC0090958095709561957F4F8F4F9F4F0895BB
:0A1DBC0080930A4590930B450895AB
:0A1DC60080910A4590910B450895A5
:0A1DD000809108459091094508959F
:0A1DDA008091FC449091FD440895AF
:081DE40083E0809304090895D7
:041DEC000C94000053
:041DF0000E949400B9
:021DF400089550
:021DF60008954E
:021DF80008954C
:101DFA007F00A600CA00E600F800FF00F800E6002F
:101E0A00CA00A6007F00580034001800060000002F
:081E1A00060018003400580016
:101E22000B020B0210031003700370031003BA02BB
:0C1E3200BA02930293024B024B020B0217
:021E3E000100A1
:021E400014008C
:021E4200D007C7
:021E440001009B
:021E4600010099
:00000001FF
